{
	"data": {
		"bytecode": {
			"linkReferences": {},
			"object": "608060405234801561000f575f80fd5b506107d98061001d5f395ff3fe608060405234801561000f575f80fd5b506004361061004a575f3560e01c80632e64cec11461004e5780632ebce6311461006c5780636057361d1461009d5780636f760f41146100b9575b5f80fd5b6100566100d5565b604051610063919061021d565b60405180910390f35b61008660048036038101906100819190610271565b6100dd565b604051610094929190610326565b60405180910390f35b6100b760048036038101906100b29190610271565b610192565b005b6100d360048036038101906100ce9190610480565b6101a4565b005b5f8054905090565b600181815481106100ec575f80fd5b905f5260205f2090600202015f91509050805f01549080600101805461011190610507565b80601f016020809104026020016040519081016040528092919081815260200182805461013d90610507565b80156101885780601f1061015f57610100808354040283529160200191610188565b820191905f5260205f20905b81548152906001019060200180831161016b57829003601f168201915b5050505050905082565b805f819055506101a06100d5565b5050565b6001604051806040016040528083815260200184815250908060018154018082558091505060019003905f5260205f2090600202015f909190919091505f820151815f015560208201518160010190816101fe91906106d4565b5050505050565b5f819050919050565b61021781610205565b82525050565b5f6020820190506102305f83018461020e565b92915050565b5f604051905090565b5f80fd5b5f80fd5b61025081610205565b811461025a575f80fd5b50565b5f8135905061026b81610247565b92915050565b5f602082840312156102865761028561023f565b5b5f6102938482850161025d565b91505092915050565b5f81519050919050565b5f82825260208201905092915050565b5f5b838110156102d35780820151818401526020810190506102b8565b5f8484015250505050565b5f601f19601f8301169050919050565b5f6102f88261029c565b61030281856102a6565b93506103128185602086016102b6565b61031b816102de565b840191505092915050565b5f6040820190506103395f83018561020e565b818103602083015261034b81846102ee565b90509392505050565b5f80fd5b5f80fd5b7f4e487b71000000000000000000000000000000000000000000000000000000005f52604160045260245ffd5b610392826102de565b810181811067ffffffffffffffff821117156103b1576103b061035c565b5b80604052505050565b5f6103c3610236565b90506103cf8282610389565b919050565b5f67ffffffffffffffff8211156103ee576103ed61035c565b5b6103f7826102de565b9050602081019050919050565b828183375f83830152505050565b5f61042461041f846103d4565b6103ba565b9050828152602081018484840111156104405761043f610358565b5b61044b848285610404565b509392505050565b5f82601f83011261046757610466610354565b5b8135610477848260208601610412565b91505092915050565b5f80604083850312156104965761049561023f565b5b5f83013567ffffffffffffffff8111156104b3576104b2610243565b5b6104bf85828601610453565b92505060206104d08582860161025d565b9150509250929050565b7f4e487b71000000000000000000000000000000000000000000000000000000005f52602260045260245ffd5b5f600282049050600182168061051e57607f821691505b602082108103610531576105306104da565b5b50919050565b5f819050815f5260205f209050919050565b5f6020601f8301049050919050565b5f82821b905092915050565b5f600883026105937fffffffffffffffffffffffffffffffffffffffffffffffffffffffffffffffff82610558565b61059d8683610558565b95508019841693508086168417925050509392505050565b5f819050919050565b5f6105d86105d36105ce84610205565b6105b5565b610205565b9050919050565b5f819050919050565b6105f1836105be565b6106056105fd826105df565b848454610564565b825550505050565b5f90565b61061961060d565b6106248184846105e8565b505050565b5b818110156106475761063c5f82610611565b60018101905061062a565b5050565b601f82111561068c5761065d81610537565b61066684610549565b81016020851015610675578190505b61068961068185610549565b830182610629565b50505b505050565b5f82821c905092915050565b5f6106ac5f1984600802610691565b1980831691505092915050565b5f6106c4838361069d565b9150826002028217905092915050565b6106dd8261029c565b67ffffffffffffffff8111156106f6576106f561035c565b5b6107008254610507565b61070b82828561064b565b5f60209050601f83116001811461073c575f841561072a578287015190505b61073485826106b9565b86555061079b565b601f19841661074a86610537565b5f5b828110156107715784890151825560018201915060208501945060208101905061074c565b8683101561078e578489015161078a601f89168261069d565b8355505b6001600288020188555050505b50505050505056fea26469706673582212208ccf91df2f3164cc0ed08a464884c1db6b6b9e59b328b9f423b81d916d1e996964736f6c63430008160033",
			"opcodes": "PUSH1 0x80 PUSH1 0x40 MSTORE CALLVALUE DUP1 ISZERO PUSH2 0xF JUMPI PUSH0 DUP1 REVERT JUMPDEST POP PUSH2 0x7D9 DUP1 PUSH2 0x1D PUSH0 CODECOPY PUSH0 RETURN INVALID PUSH1 0x80 PUSH1 0x40 MSTORE CALLVALUE DUP1 ISZERO PUSH2 0xF JUMPI PUSH0 DUP1 REVERT JUMPDEST POP PUSH1 0x4 CALLDATASIZE LT PUSH2 0x4A JUMPI PUSH0 CALLDATALOAD PUSH1 0xE0 SHR DUP1 PUSH4 0x2E64CEC1 EQ PUSH2 0x4E JUMPI DUP1 PUSH4 0x2EBCE631 EQ PUSH2 0x6C JUMPI DUP1 PUSH4 0x6057361D EQ PUSH2 0x9D JUMPI DUP1 PUSH4 0x6F760F41 EQ PUSH2 0xB9 JUMPI JUMPDEST PUSH0 DUP1 REVERT JUMPDEST PUSH2 0x56 PUSH2 0xD5 JUMP JUMPDEST PUSH1 0x40 MLOAD PUSH2 0x63 SWAP2 SWAP1 PUSH2 0x21D JUMP JUMPDEST PUSH1 0x40 MLOAD DUP1 SWAP2 SUB SWAP1 RETURN JUMPDEST PUSH2 0x86 PUSH1 0x4 DUP1 CALLDATASIZE SUB DUP2 ADD SWAP1 PUSH2 0x81 SWAP2 SWAP1 PUSH2 0x271 JUMP JUMPDEST PUSH2 0xDD JUMP JUMPDEST PUSH1 0x40 MLOAD PUSH2 0x94 SWAP3 SWAP2 SWAP1 PUSH2 0x326 JUMP JUMPDEST PUSH1 0x40 MLOAD DUP1 SWAP2 SUB SWAP1 RETURN JUMPDEST PUSH2 0xB7 PUSH1 0x4 DUP1 CALLDATASIZE SUB DUP2 ADD SWAP1 PUSH2 0xB2 SWAP2 SWAP1 PUSH2 0x271 JUMP JUMPDEST PUSH2 0x192 JUMP JUMPDEST STOP JUMPDEST PUSH2 0xD3 PUSH1 0x4 DUP1 CALLDATASIZE SUB DUP2 ADD SWAP1 PUSH2 0xCE SWAP2 SWAP1 PUSH2 0x480 JUMP JUMPDEST PUSH2 0x1A4 JUMP JUMPDEST STOP JUMPDEST PUSH0 DUP1 SLOAD SWAP1 POP SWAP1 JUMP JUMPDEST PUSH1 0x1 DUP2 DUP2 SLOAD DUP2 LT PUSH2 0xEC JUMPI PUSH0 DUP1 REVERT JUMPDEST SWAP1 PUSH0 MSTORE PUSH1 0x20 PUSH0 KECCAK256 SWAP1 PUSH1 0x2 MUL ADD PUSH0 SWAP2 POP SWAP1 POP DUP1 PUSH0 ADD SLOAD SWAP1 DUP1 PUSH1 0x1 ADD DUP1 SLOAD PUSH2 0x111 SWAP1 PUSH2 0x507 JUMP JUMPDEST DUP1 PUSH1 0x1F ADD PUSH1 0x20 DUP1 SWAP2 DIV MUL PUSH1 0x20 ADD PUSH1 0x40 MLOAD SWAP1 DUP2 ADD PUSH1 0x40 MSTORE DUP1 SWAP3 SWAP2 SWAP1 DUP2 DUP2 MSTORE PUSH1 0x20 ADD DUP3 DUP1 SLOAD PUSH2 0x13D SWAP1 PUSH2 0x507 JUMP JUMPDEST DUP1 ISZERO PUSH2 0x188 JUMPI DUP1 PUSH1 0x1F LT PUSH2 0x15F JUMPI PUSH2 0x100 DUP1 DUP4 SLOAD DIV MUL DUP4 MSTORE SWAP2 PUSH1 0x20 ADD SWAP2 PUSH2 0x188 JUMP JUMPDEST DUP3 ADD SWAP2 SWAP1 PUSH0 MSTORE PUSH1 0x20 PUSH0 KECCAK256 SWAP1 JUMPDEST DUP2 SLOAD DUP2 MSTORE SWAP1 PUSH1 0x1 ADD SWAP1 PUSH1 0x20 ADD DUP1 DUP4 GT PUSH2 0x16B JUMPI DUP3 SWAP1 SUB PUSH1 0x1F AND DUP3 ADD SWAP2 JUMPDEST POP POP POP POP POP SWAP1 POP DUP3 JUMP JUMPDEST DUP1 PUSH0 DUP2 SWAP1 SSTORE POP PUSH2 0x1A0 PUSH2 0xD5 JUMP JUMPDEST POP POP JUMP JUMPDEST PUSH1 0x1 PUSH1 0x40 MLOAD DUP1 PUSH1 0x40 ADD PUSH1 0x40 MSTORE DUP1 DUP4 DUP2 MSTORE PUSH1 0x20 ADD DUP5 DUP2 MSTORE POP SWAP1 DUP1 PUSH1 0x1 DUP2 SLOAD ADD DUP1 DUP3 SSTORE DUP1 SWAP2 POP POP PUSH1 0x1 SWAP1 SUB SWAP1 PUSH0 MSTORE PUSH1 0x20 PUSH0 KECCAK256 SWAP1 PUSH1 0x2 MUL ADD PUSH0 SWAP1 SWAP2 SWAP1 SWAP2 SWAP1 SWAP2 POP PUSH0 DUP3 ADD MLOAD DUP2 PUSH0 ADD SSTORE PUSH1 0x20 DUP3 ADD MLOAD DUP2 PUSH1 0x1 ADD SWAP1 DUP2 PUSH2 0x1FE SWAP2 SWAP1 PUSH2 0x6D4 JUMP JUMPDEST POP POP POP POP POP JUMP JUMPDEST PUSH0 DUP2 SWAP1 POP SWAP2 SWAP1 POP JUMP JUMPDEST PUSH2 0x217 DUP2 PUSH2 0x205 JUMP JUMPDEST DUP3 MSTORE POP POP JUMP JUMPDEST PUSH0 PUSH1 0x20 DUP3 ADD SWAP1 POP PUSH2 0x230 PUSH0 DUP4 ADD DUP5 PUSH2 0x20E JUMP JUMPDEST SWAP3 SWAP2 POP POP JUMP JUMPDEST PUSH0 PUSH1 0x40 MLOAD SWAP1 POP SWAP1 JUMP JUMPDEST PUSH0 DUP1 REVERT JUMPDEST PUSH0 DUP1 REVERT JUMPDEST PUSH2 0x250 DUP2 PUSH2 0x205 JUMP JUMPDEST DUP2 EQ PUSH2 0x25A JUMPI PUSH0 DUP1 REVERT JUMPDEST POP JUMP JUMPDEST PUSH0 DUP2 CALLDATALOAD SWAP1 POP PUSH2 0x26B DUP2 PUSH2 0x247 JUMP JUMPDEST SWAP3 SWAP2 POP POP JUMP JUMPDEST PUSH0 PUSH1 0x20 DUP3 DUP5 SUB SLT ISZERO PUSH2 0x286 JUMPI PUSH2 0x285 PUSH2 0x23F JUMP JUMPDEST JUMPDEST PUSH0 PUSH2 0x293 DUP5 DUP3 DUP6 ADD PUSH2 0x25D JUMP JUMPDEST SWAP2 POP POP SWAP3 SWAP2 POP POP JUMP JUMPDEST PUSH0 DUP2 MLOAD SWAP1 POP SWAP2 SWAP1 POP JUMP JUMPDEST PUSH0 DUP3 DUP3 MSTORE PUSH1 0x20 DUP3 ADD SWAP1 POP SWAP3 SWAP2 POP POP JUMP JUMPDEST PUSH0 JUMPDEST DUP4 DUP2 LT ISZERO PUSH2 0x2D3 JUMPI DUP1 DUP3 ADD MLOAD DUP2 DUP5 ADD MSTORE PUSH1 0x20 DUP2 ADD SWAP1 POP PUSH2 0x2B8 JUMP JUMPDEST PUSH0 DUP5 DUP5 ADD MSTORE POP POP POP POP JUMP JUMPDEST PUSH0 PUSH1 0x1F NOT PUSH1 0x1F DUP4 ADD AND SWAP1 POP SWAP2 SWAP1 POP JUMP JUMPDEST PUSH0 PUSH2 0x2F8 DUP3 PUSH2 0x29C JUMP JUMPDEST PUSH2 0x302 DUP2 DUP6 PUSH2 0x2A6 JUMP JUMPDEST SWAP4 POP PUSH2 0x312 DUP2 DUP6 PUSH1 0x20 DUP7 ADD PUSH2 0x2B6 JUMP JUMPDEST PUSH2 0x31B DUP2 PUSH2 0x2DE JUMP JUMPDEST DUP5 ADD SWAP2 POP POP SWAP3 SWAP2 POP POP JUMP JUMPDEST PUSH0 PUSH1 0x40 DUP3 ADD SWAP1 POP PUSH2 0x339 PUSH0 DUP4 ADD DUP6 PUSH2 0x20E JUMP JUMPDEST DUP2 DUP2 SUB PUSH1 0x20 DUP4 ADD MSTORE PUSH2 0x34B DUP2 DUP5 PUSH2 0x2EE JUMP JUMPDEST SWAP1 POP SWAP4 SWAP3 POP POP POP JUMP JUMPDEST PUSH0 DUP1 REVERT JUMPDEST PUSH0 DUP1 REVERT JUMPDEST PUSH32 0x4E487B7100000000000000000000000000000000000000000000000000000000 PUSH0 MSTORE PUSH1 0x41 PUSH1 0x4 MSTORE PUSH1 0x24 PUSH0 REVERT JUMPDEST PUSH2 0x392 DUP3 PUSH2 0x2DE JUMP JUMPDEST DUP2 ADD DUP2 DUP2 LT PUSH8 0xFFFFFFFFFFFFFFFF DUP3 GT OR ISZERO PUSH2 0x3B1 JUMPI PUSH2 0x3B0 PUSH2 0x35C JUMP JUMPDEST JUMPDEST DUP1 PUSH1 0x40 MSTORE POP POP POP JUMP JUMPDEST PUSH0 PUSH2 0x3C3 PUSH2 0x236 JUMP JUMPDEST SWAP1 POP PUSH2 0x3CF DUP3 DUP3 PUSH2 0x389 JUMP JUMPDEST SWAP2 SWAP1 POP JUMP JUMPDEST PUSH0 PUSH8 0xFFFFFFFFFFFFFFFF DUP3 GT ISZERO PUSH2 0x3EE JUMPI PUSH2 0x3ED PUSH2 0x35C JUMP JUMPDEST JUMPDEST PUSH2 0x3F7 DUP3 PUSH2 0x2DE JUMP JUMPDEST SWAP1 POP PUSH1 0x20 DUP2 ADD SWAP1 POP SWAP2 SWAP1 POP JUMP JUMPDEST DUP3 DUP2 DUP4 CALLDATACOPY PUSH0 DUP4 DUP4 ADD MSTORE POP POP POP JUMP JUMPDEST PUSH0 PUSH2 0x424 PUSH2 0x41F DUP5 PUSH2 0x3D4 JUMP JUMPDEST PUSH2 0x3BA JUMP JUMPDEST SWAP1 POP DUP3 DUP2 MSTORE PUSH1 0x20 DUP2 ADD DUP5 DUP5 DUP5 ADD GT ISZERO PUSH2 0x440 JUMPI PUSH2 0x43F PUSH2 0x358 JUMP JUMPDEST JUMPDEST PUSH2 0x44B DUP5 DUP3 DUP6 PUSH2 0x404 JUMP JUMPDEST POP SWAP4 SWAP3 POP POP POP JUMP JUMPDEST PUSH0 DUP3 PUSH1 0x1F DUP4 ADD SLT PUSH2 0x467 JUMPI PUSH2 0x466 PUSH2 0x354 JUMP JUMPDEST JUMPDEST DUP2 CALLDATALOAD PUSH2 0x477 DUP5 DUP3 PUSH1 0x20 DUP7 ADD PUSH2 0x412 JUMP JUMPDEST SWAP2 POP POP SWAP3 SWAP2 POP POP JUMP JUMPDEST PUSH0 DUP1 PUSH1 0x40 DUP4 DUP6 SUB SLT ISZERO PUSH2 0x496 JUMPI PUSH2 0x495 PUSH2 0x23F JUMP JUMPDEST JUMPDEST PUSH0 DUP4 ADD CALLDATALOAD PUSH8 0xFFFFFFFFFFFFFFFF DUP2 GT ISZERO PUSH2 0x4B3 JUMPI PUSH2 0x4B2 PUSH2 0x243 JUMP JUMPDEST JUMPDEST PUSH2 0x4BF DUP6 DUP3 DUP7 ADD PUSH2 0x453 JUMP JUMPDEST SWAP3 POP POP PUSH1 0x20 PUSH2 0x4D0 DUP6 DUP3 DUP7 ADD PUSH2 0x25D JUMP JUMPDEST SWAP2 POP POP SWAP3 POP SWAP3 SWAP1 POP JUMP JUMPDEST PUSH32 0x4E487B7100000000000000000000000000000000000000000000000000000000 PUSH0 MSTORE PUSH1 0x22 PUSH1 0x4 MSTORE PUSH1 0x24 PUSH0 REVERT JUMPDEST PUSH0 PUSH1 0x2 DUP3 DIV SWAP1 POP PUSH1 0x1 DUP3 AND DUP1 PUSH2 0x51E JUMPI PUSH1 0x7F DUP3 AND SWAP2 POP JUMPDEST PUSH1 0x20 DUP3 LT DUP2 SUB PUSH2 0x531 JUMPI PUSH2 0x530 PUSH2 0x4DA JUMP JUMPDEST JUMPDEST POP SWAP2 SWAP1 POP JUMP JUMPDEST PUSH0 DUP2 SWAP1 POP DUP2 PUSH0 MSTORE PUSH1 0x20 PUSH0 KECCAK256 SWAP1 POP SWAP2 SWAP1 POP JUMP JUMPDEST PUSH0 PUSH1 0x20 PUSH1 0x1F DUP4 ADD DIV SWAP1 POP SWAP2 SWAP1 POP JUMP JUMPDEST PUSH0 DUP3 DUP3 SHL SWAP1 POP SWAP3 SWAP2 POP POP JUMP JUMPDEST PUSH0 PUSH1 0x8 DUP4 MUL PUSH2 0x593 PUSH32 0xFFFFFFFFFFFFFFFFFFFFFFFFFFFFFFFFFFFFFFFFFFFFFFFFFFFFFFFFFFFFFFFF DUP3 PUSH2 0x558 JUMP JUMPDEST PUSH2 0x59D DUP7 DUP4 PUSH2 0x558 JUMP JUMPDEST SWAP6 POP DUP1 NOT DUP5 AND SWAP4 POP DUP1 DUP7 AND DUP5 OR SWAP3 POP POP POP SWAP4 SWAP3 POP POP POP JUMP JUMPDEST PUSH0 DUP2 SWAP1 POP SWAP2 SWAP1 POP JUMP JUMPDEST PUSH0 PUSH2 0x5D8 PUSH2 0x5D3 PUSH2 0x5CE DUP5 PUSH2 0x205 JUMP JUMPDEST PUSH2 0x5B5 JUMP JUMPDEST PUSH2 0x205 JUMP JUMPDEST SWAP1 POP SWAP2 SWAP1 POP JUMP JUMPDEST PUSH0 DUP2 SWAP1 POP SWAP2 SWAP1 POP JUMP JUMPDEST PUSH2 0x5F1 DUP4 PUSH2 0x5BE JUMP JUMPDEST PUSH2 0x605 PUSH2 0x5FD DUP3 PUSH2 0x5DF JUMP JUMPDEST DUP5 DUP5 SLOAD PUSH2 0x564 JUMP JUMPDEST DUP3 SSTORE POP POP POP POP JUMP JUMPDEST PUSH0 SWAP1 JUMP JUMPDEST PUSH2 0x619 PUSH2 0x60D JUMP JUMPDEST PUSH2 0x624 DUP2 DUP5 DUP5 PUSH2 0x5E8 JUMP JUMPDEST POP POP POP JUMP JUMPDEST JUMPDEST DUP2 DUP2 LT ISZERO PUSH2 0x647 JUMPI PUSH2 0x63C PUSH0 DUP3 PUSH2 0x611 JUMP JUMPDEST PUSH1 0x1 DUP2 ADD SWAP1 POP PUSH2 0x62A JUMP JUMPDEST POP POP JUMP JUMPDEST PUSH1 0x1F DUP3 GT ISZERO PUSH2 0x68C JUMPI PUSH2 0x65D DUP2 PUSH2 0x537 JUMP JUMPDEST PUSH2 0x666 DUP5 PUSH2 0x549 JUMP JUMPDEST DUP2 ADD PUSH1 0x20 DUP6 LT ISZERO PUSH2 0x675 JUMPI DUP2 SWAP1 POP JUMPDEST PUSH2 0x689 PUSH2 0x681 DUP6 PUSH2 0x549 JUMP JUMPDEST DUP4 ADD DUP3 PUSH2 0x629 JUMP JUMPDEST POP POP JUMPDEST POP POP POP JUMP JUMPDEST PUSH0 DUP3 DUP3 SHR SWAP1 POP SWAP3 SWAP2 POP POP JUMP JUMPDEST PUSH0 PUSH2 0x6AC PUSH0 NOT DUP5 PUSH1 0x8 MUL PUSH2 0x691 JUMP JUMPDEST NOT DUP1 DUP4 AND SWAP2 POP POP SWAP3 SWAP2 POP POP JUMP JUMPDEST PUSH0 PUSH2 0x6C4 DUP4 DUP4 PUSH2 0x69D JUMP JUMPDEST SWAP2 POP DUP3 PUSH1 0x2 MUL DUP3 OR SWAP1 POP SWAP3 SWAP2 POP POP JUMP JUMPDEST PUSH2 0x6DD DUP3 PUSH2 0x29C JUMP JUMPDEST PUSH8 0xFFFFFFFFFFFFFFFF DUP2 GT ISZERO PUSH2 0x6F6 JUMPI PUSH2 0x6F5 PUSH2 0x35C JUMP JUMPDEST JUMPDEST PUSH2 0x700 DUP3 SLOAD PUSH2 0x507 JUMP JUMPDEST PUSH2 0x70B DUP3 DUP3 DUP6 PUSH2 0x64B JUMP JUMPDEST PUSH0 PUSH1 0x20 SWAP1 POP PUSH1 0x1F DUP4 GT PUSH1 0x1 DUP2 EQ PUSH2 0x73C JUMPI PUSH0 DUP5 ISZERO PUSH2 0x72A JUMPI DUP3 DUP8 ADD MLOAD SWAP1 POP JUMPDEST PUSH2 0x734 DUP6 DUP3 PUSH2 0x6B9 JUMP JUMPDEST DUP7 SSTORE POP PUSH2 0x79B JUMP JUMPDEST PUSH1 0x1F NOT DUP5 AND PUSH2 0x74A DUP7 PUSH2 0x537 JUMP JUMPDEST PUSH0 JUMPDEST DUP3 DUP2 LT ISZERO PUSH2 0x771 JUMPI DUP5 DUP10 ADD MLOAD DUP3 SSTORE PUSH1 0x1 DUP3 ADD SWAP2 POP PUSH1 0x20 DUP6 ADD SWAP5 POP PUSH1 0x20 DUP2 ADD SWAP1 POP PUSH2 0x74C JUMP JUMPDEST DUP7 DUP4 LT ISZERO PUSH2 0x78E JUMPI DUP5 DUP10 ADD MLOAD PUSH2 0x78A PUSH1 0x1F DUP10 AND DUP3 PUSH2 0x69D JUMP JUMPDEST DUP4 SSTORE POP JUMPDEST PUSH1 0x1 PUSH1 0x2 DUP9 MUL ADD DUP9 SSTORE POP POP POP JUMPDEST POP POP POP POP POP POP JUMP INVALID LOG2 PUSH5 0x6970667358 0x22 SLT KECCAK256 DUP13 0xCF SWAP2 0xDF 0x2F BALANCE PUSH5 0xCC0ED08A46 BASEFEE DUP5 0xC1 0xDB PUSH12 0x6B9E59B328B9F423B81D916D 0x1E SWAP10 PUSH10 0x64736F6C634300081600 CALLER "
		},
		"gasEstimates": {
			"creation": {
				"codeDepositCost": "401800",
				"executionCost": "434",
				"totalCost": "402234"
			},
			"external": {
				"addPerson(string,uint256)": "infinite",
				"listOfPeople(uint256)": "infinite",
				"retrieve()": "2410",
				"store(uint256)": "24675"
			}
		},
		"methodIdentifiers": {
			"addPerson(string,uint256)": "6f760f41",
			"listOfPeople(uint256)": "2ebce631",
			"retrieve()": "2e64cec1",
			"store(uint256)": "6057361d"
		}
	},
	"abi": [
		{
			"inputs": [
				{
					"internalType": "string",
					"name": "_name",
					"type": "string"
				},
				{
					"internalType": "uint256",
					"name": "_favoriteNumber",
					"type": "uint256"
				}
			],
			"name": "addPerson",
			"outputs": [],
			"stateMutability": "nonpayable",
			"type": "function"
		},
		{
			"inputs": [
				{
					"internalType": "uint256",
					"name": "",
					"type": "uint256"
				}
			],
			"name": "listOfPeople",
			"outputs": [
				{
					"internalType": "uint256",
					"name": "favoriteNumber",
					"type": "uint256"
				},
				{
					"internalType": "string",
					"name": "name",
					"type": "string"
				}
			],
			"stateMutability": "view",
			"type": "function"
		},
		{
			"inputs": [],
			"name": "retrieve",
			"outputs": [
				{
					"internalType": "uint256",
					"name": "",
					"type": "uint256"
				}
			],
			"stateMutability": "view",
			"type": "function"
		},
		{
			"inputs": [
				{
					"internalType": "uint256",
					"name": "_favoriteNumber",
					"type": "uint256"
				}
			],
			"name": "store",
			"outputs": [],
			"stateMutability": "nonpayable",
			"type": "function"
		}
	]
}